:020000040800F2
:10000000D01A042445040008C75D0008E158000820
:10001000C55D0008E50B00082D96000800000000F3
:10002000000000000000000000000000890300083C
:10003000AF11000800000000DD030008E5680008BB
:100040005F0400085F0400085F0400085F04000804
:100050005F0400085F0400085F0400085F040008F4
:100060005F0400085F0400085F0400085F040008E4
:100070005F0400085F0400085F040008910F000897
:100080009D0F00085F0400085F0400085F0400087B
:100090005F0400085F0400085F0400085F040008B4
:1000A0005F0400085F0400085F0400085F040008A4
:1000B0005F040008856900085F0400085F04000809
:1000C0005F0400085F0400085F0400085F04000884
:1000D0005F040008F1720008217400085D750008D3
:1000E0005F0400085F040008000000005F040008CF
:1000F0005F0400085F0400085F0400085F04000854
:100100005F0400085F0400085F0400085F04000843
:100110005F0400085F0400085F0400085F04000833
:100120005F0400085F0400085F0400085F04000823
:10013000A90F00085F0400085F0400085F040008BE
:1001400000000000000000000000000000000000AF
:10015000B50F0008C10F0008CD0F00085F040008AC
:100160005F0400085F0400085F0400085F040008E3
:100170005F0400085F0400085F040008000000003E
:100180005F0400085F0400085F0400085F040008C3
:100190005F0400085F0400085F0400085F040008B3
:1001A0005F0400085F0400085F0400085F040008A3
:1001B0005F0400085F0400085F0400085F04000893
:1001C0005F0400085F0400085F0400085F04000883
:1001D0005F040008C95D00085F0400085F040008B0
:1001E0005F0400085F0400085F0400085F04000863
:1001F0005F0400085F0400085F0400085F04000853
:100200005F0400085F0400085F0400085F04000842
:100210005F0400085F0400085F0400085F04000832
:100220005F0400085F0400085F040008000000008D
:100230005F0400085F040008000000005F0400087D
:100240005F0400085F0400085F0400085F04000802
:100250005F0400085F0400085F0400085F040008F2
:100260005F0400085F0400085F0400085F040008E2
:100270005F0400085F0400085F040008000000003D
:100280005F040008000000005F0400080000000098
:10029000000000005F04000800F002F800F064F8BD
:1002A0000AA090E8000C82448344AAF10107DA45D1
:1002B00001D100F059F8AFF2090EBAE80F0013F0BF
:1002C000010F18BFFB1A43F00103184700F90000A3
:1002D00020F900000A444FF0000C10F8013B13F025
:1002E000070408BF10F8014B1D1108BF10F8015B8F
:1002F000641E05D010F8016B641E01F8016BF9D182
:1003000013F0080F1EBF10F8014BAD1C0C1B09D1D8
:100310006D1E58BF01F801CBFAD505E014F8016B4A
:1003200001F8016B6D1EF9D59142D6D370470000DC
:100330000023002400250026103A28BF78C1FBD8EE
:10034000520728BF30C148BF0B607047642900F0D6
:100350008181732900F0B583002070471FB50FF02D
:10036000D0F91FBD10B510BD00F0CEFB1146FFF750
:10037000F5FF0CF095FA00F0ECFB03B4FFF7F2FF89
:1003800003BC09F020FE00002B4B19680868B0E898
:10039000F04F80F30988BFF36F8F4FF0000080F3B8
:1003A000118870470000000006480068006880F36C
:1003B000088862B661B6BFF34F8FBFF36F8F00DF5F
:1003C00000BF00BF08ED00E0DFF80C00016841F459
:1003D00070010160704700BF88ED00E0EFF3098015
:1003E000BFF36F8F144B1A681EF0100F08BF20ED7B
:1003F000108A20E9F04F106008B44FF0500072B638
:1004000080F31188BFF34F8FBFF36F8F62B60EF08A
:10041000B3F94FF0000080F3118808BC1968086830
:10042000B0E8F04F1EF0100F08BFB0EC108A80F358
:100430000988BFF36F8F7047C0020024EFF3058077
:10044000704700000948804709480047FEE7FEE77B
:10045000FEE7FEE7FEE7FEE7FEE7FEE7FEE7FEE774
:1004600004480549054A064B70470000FD6800082E
:1004700099020008D0080424D01A0424D00A0424C5
:10048000D00A042453EA020C00F069802DE9F04BF5
:100490004FF00006002B1FBFB3FA83F503FA05F4F3
:1004A00024FA05F65E4012BF1643B2FA82F502FA4C
:1004B00005F4C5F120051EBF22FA05FC44EA0C0430
:1004C000203556EA044C4FEA144418BF641C4FF020
:1004D00000084FF00009904271EB030C39D300295A
:1004E00019BFB1FA81F701FA07F6B0FA80F700FAFE
:1004F00007F6C7F120071EBF20FA07FC46EA0C06E4
:100500002037B6FBF4FCA7EB0507103F07F01F0BE5
:10051000CBF120060CFA0BFB2CFA06F644BFB346CF
:100520000026202FA4BF5E464FF0000B5BEA060CAE
:1005300008BF4FF0010B19EB0B09ABFB027C48EB3A
:100540000608C01B06FB02CC0BFB03CC71EB0C01B5
:10055000C1E70B46024641464846BDE8F08B13B55D
:100560004FF000004FF00001AFF30080BDE81C40E9
:10057000704700000FB4044910B503AA029800F0B8
:10058000A5FA10BC5DF814FB340000240FB41CB5B0
:10059000074B06AA7B4469460090059800F067FA6D
:1005A0000020694600F076FA1CBC5DF814FB0000E0
:1005B000FD04000070B5044685690068C10601D5D8
:1005C000302600E02026C00707D070BDD4E9012105
:1005D00030469047206A401C20626D1EF6D570BDE3
:1005E00070B5044685690078C00707D170BDD4E9AD
:1005F000012120209047206A401C20626D1EF6D504
:1006000070BD70B50C460546012A05D028788006D5
:1006100000D5EA69002302E0012305E05B1C934258
:1006200002D2E05C0028F9D1A869E618C01AA861D6
:10063000286A184428622846FFF7BCFF04E0D5E981
:10064000012114F8010B9047B442F8D32846FFF774
:10065000C7FF70BD2DE9F0410646002410687529DA
:10066000314616A510D0AFF30080002802DA4042D0
:1006700013A507E031688A0701D512A502E04907F2
:1006800004D511A5012401E0AFF3008000210A2266
:1006900006F1240709E0B0FBF2FCB0FBF2F302FB29
:1006A0001C00303078541846491C0028F3D12346EA
:1006B0002A463046BDE8F04100F07AB9000000005B
:1006C0002D0000002B000000200000002DE9F05F4D
:1006D000894604464FF0000ADFF824B1FB44C0F815
:1006E00020A02046E168884700287DD0252806D034
:1006F000D4E901219047206A401C2062F1E70025DF
:100700005F462046E16888472028064607DB312EF1
:1007100005D2B81910F8200C08B10543F1E7A80775
:1007200001D525F00405C4F81CA00027C4F818A0C2
:100730002A2E09D0304609F03FFC38B304EB870875
:10074000303EC8F8186019E059F8041B204604EB45
:1007500087029161E1688847012F064618D1E06958
:10076000002820DA25F020051DE0D8F8180000EB5D
:10077000800006EB40003038C8F818002046E168D9
:100780008847064609F018FC0028EED1012F0AD050
:100790002E2E08D12046E16888477F1C0646022F8E
:1007A00045F02005C4DBA069002803DA404245F08B
:1007B0000105A061E80701D025F01005A6B1A6F15A
:1007C0004100192802D8203645F400654A463146D2
:1007D000204625604D46FFF7B9FD60B1012807D0DE
:1007E000ED1D25F0070000E007E000F1080978E7BB
:1007F00005F1040975E730467AE7206ABDE8F09F05
:100800008EF30000032A40F2308010F0030C00F059
:10081000158011F8013BBCF1020F624498BF11F83A
:1008200001CB00F8013B38BF11F8013BA2F10402F3
:1008300098BF00F801CB38BF00F8013B11F003036B
:1008400000F02580083AC0F0088051F8043B083ACF
:1008500051F804CBA0E80810F5E7121D5CBF51F871
:10086000043B40F8043BAFF30080D20724BF11F8EB
:10087000013B11F801CB48BF11F8012B24BF00F850
:10088000013B00F801CB48BF00F8012B704710B5C1
:10089000203AC0F00B80B1E81850203AA0E8185078
:1008A000B1E81850A0E81850BFF4F5AF5FEA027C39
:1008B00024BFB1E81850A0E8185044BF18C918C0A8
:1008C000BDE810405FEA827C24BF51F8043B40F849
:1008D000043B08BF7047D20728BF31F8023B48BF2E
:1008E00011F8012B28BF20F8023B48BF00F8012B6C
:1008F000704702F0FF0343EA032242EA024200F09B
:1009000002B84FF000020429C0F0128010F0030C6E
:1009100000F01B80CCF1040CBCF1020F18BF00F8F2
:10092000012BA8BF20F8022BA1EB0C0100F00DB8A1
:100930005FEAC17C24BF00F8012B00F8012B48BFFF
:1009400000F8012B70474FF0000200B513469446A3
:100950009646203922BFA0E80C50A0E80C50B1F117
:100960002001BFF4F7AF090728BFA0E80C5048BF2B
:100970000CC05DF804EB890028BF40F8042B08BFC9
:10098000704748BF20F8022B11F0804F18BF00F8C5
:10099000012B704770477047704710B500F0A8F8FA
:1009A000006810BD10B5044600F0A2F8046010BD48
:1009B0002DE9F0470D4699469246044600F1240879
:1009C0000168880604D5E06921F01001216000E08B
:1009D0000120A84201DD471B00E00027A1697A1928
:1009E00002EB0900081AA0612078C00602D4204654
:1009F000FFF7E0FD002608E0D4E901211AF806001F
:100A00009047206A401C761C20624E45F4DB20781B
:100A1000C0060AD52046FFF7CDFD06E0D4E9012146
:100A200030209047206A401C2062381EA7F1010741
:100A3000F4DC07E0D4E9012118F805009047206AAA
:100A4000401C2062281EA5F10105F3DC2046FFF7BB
:100A5000C7FD2078000602D50220BDE8F0870120FE
:100A6000FBE7000001694A1C02610878704700B585
:100A70008FB0CDE901310021059105497944CDE9D7
:100A8000031011466846FFF721FE0FB000BD0000BD
:100A9000E5FFFFFF0A6802F8010B0A60704710B516
:100AA000436913B1AFF3008001E0FFF7AAFD012015
:100AB00010BD127800F124010A7000224A70012250
:100AC000EDE711684FF0FF32E9E70000074B70B522
:100AD0000D467B44FFF7CBFF0446284600F00CF898
:100AE00010B14FF0FF3070BD204670BDD7B9000087
:100AF0000048704770080424007B00F080007047B5
:100B000000487047700804247546FFF7F9FFAE46A9
:100B100005006946534620F00700854618B020B509
:100B2000FFF79EFCBDE820404FF000064FF00007A5
:100B30004FF000084FF0000B21F00701AC46ACE885
:100B4000C009ACE8C009ACE8C009ACE8C0098D46F2
:100B5000704710B50446AFF300802046BDE8104052
:100B6000FFF70BBC10B5044604F0B6FF210AA02025
:100B700000EB4100C0B204F079FF04F0FDFFE0B2E9
:100B800004F074FF04F0F8FF04F0A6FFA12004F0C5
:100B90006DFF04F0F1FF002004F034FF044604F080
:100BA000C3FF204610BD70B50D46044604F094FF07
:100BB000210AA02000EB4100C0B204F057FF04F06E
:100BC000DBFFE0B204F052FF04F0D6FF284604F049
:100BD0004DFF04F0D1FF04F0A7FFBDE870400A20EC
:100BE00009F0F2BDFEE70000F0B5BFF34F8FBFF391
:100BF0006F8F1D4900200860BFF34F8FBFF36F8FC9
:100C00001A4B196841F400311960BFF34F8FBFF3DD
:100C10006F8F164970310860BFF34F8F081F43F67E
:100C2000FF740068104D1035C0F34E31C0F3C90297
:100C300004EA4116104600BF46EA80772F60401E46
:100C4000FAD2491EF4D2BFF34F8F186840F48030B7
:100C50001860BFF34F8FBFF36F8F03484C300168AC
:100C600041F004010160F0BD50EF00E014ED00E040
:100C700070B50E4D40F201320D4800210C46AA819C
:100C80000170417002230A498222A88900F0C2FA49
:100C900007480A211C3005F001FCA889641CE4B255
:100CA000801CA881082CEDD370BD00004C000024EE
:100CB000C0470024034A002010605060C721312043
:100CC00005F066BEB802002470B52DED0A8B9FEDCD
:100CD0009F9BA44C0B289FED9FBB9FEDA08BB0EE7C
:100CE00000AB24D2DFE800F02306264462809EBADF
:100CF000D8F8F6000025B2EE04CB00BF00EE105A83
:100D0000B8EE400B80EE091B21EE0A0B20EE0B0B18
:100D100008F05EFEB0EE481B691C00EE0C1BBCEE3A
:100D2000C10B10EE100A6055CDB23C2DE6D3BDECE0
:100D30000A8B70BD0025B3EE04CB00BF00EE105A45
:100D4000B8EE400B80EE091B21EE0A0B20EE0B0BD8
:100D500008F03EFEB0EE481B691C00EE0C1BBCEE1A
:100D6000C10B10EE100A6055CDB23C2DE6D3DEE784
:100D70000025B3EE0ECB00BF00EE105AB8EE400BCC
:100D800080EE091B21EE0A0B20EE0B0B08F020FE73
:100D9000B0EE481B691C00EE0C1BBCEEC10B10EE44
:100DA000100A6055CDB23C2DE6D3C0E700259FED7B
:100DB0006ECB00BF00EE105AB8EE400B80EE091B60
:100DC00021EE0A0B20EE0B0B08F002FEB0EE481BE2
:100DD000691C00EE0C1BBCEEC10B10EE100A605536
:100DE000CDB23C2DE6D3A2E700259FED61CB00BF3D
:100DF00000EE105AB8EE400B80EE091B21EE0A0BF4
:100E000020EE0B0B08F0E4FDB0EE481B691C00EE71
:100E10000C1BBCEEC10B10EE100A6055CDB23C2D80
:100E2000E6D384E75FF0000500EE105AB8EE400B01
:100E300080EE091B21EE0A0B20EE0B0B08F0C8FD1B
:100E4000B0EE481B691C00EE091BBCEEC10B10EE96
:100E5000100A6055CDB23C2DE6D368E700259FED22
:100E600046CB00BF00EE105AB8EE400B80EE091BD7
:100E700021EE0A0B20EE0B0B08F0AAFDB0EE481B8A
:100E8000691C00EE0C1BBCEEC10B10EE100A605585
:100E9000CDB23C2DE6D34AE79FED39CB002500BF0C
:100EA00000EE105AB8EE400B80EE091B21EE0A0B43
:100EB00020EE0B0B08F08CFDB0EE481B691C00EE19
:100EC0000C1BBCEEC10B10EE100A6055CDB23C2DD0
:100ED000E6D32CE71EE0FFE79FED2BCB002500BFFC
:100EE00000EE105AB8EE400B80EE091B21EE0A0B03
:100EF00020EE0B0B08F06CFDB0EE481B691C00EEF9
:100F00000C1BBCEEC10B10EE100A6055CDB23C2D8F
:100F1000E6D30CE75FF0000500EE105AB8EE400B88
:100F200080EE091B21EE0A0B20EE0B0B08F050FDA2
:100F3000B0EE481B691C00EE081BBCEEC10B10EEA6
:100F4000100A6055CDB23C2DE6D3F0E6000000005B
:100F500000004E404AD8124DFB210940000000001D
:100F60000000594034030024000000000000444009
:100F700000000000000049400000000000805140D7
:100F800000000000000054400000000000805640B7
:100F9000014801F02FB90000D44A0024014801F0B3
:100FA00029B900004C4B0024014801F023B900008E
:100FB00050330024014801F01DB90000C83300245B
:100FC000014801F017B90000A8490024014801F0C8
:100FD00011B900003049002401681823CAB2103A40
:100FE000B2FBF3F2054B6FF30901032A9B5CC36567
:100FF00000D9091D81650846704700001CF70008EC
:1010000030B512490123026854188C2CD1B209D88A
:1010100014220F4C0839B1FBF2F10D4A803204EB77
:1010200081040DE018240B4D1039B1FBF4F12A4472
:10103000A82A00D80831084A02EB8104064A803207
:1010400004668B40C0E9192330BD0000F8ABFDA752
:1010500000580258F0FBFDBF0008024010B50179AE
:1010600003684A1E072A11D8094C23448C2B03D845
:10107000084B084C443302E0074B074C443304EB65
:101080008101C0E91B1301219140416710BD00009F
:10109000F8ABFDA7FC580258FC08024010B5836964
:1010A0004FF0C074826A0146002053B1B3F5005F6F
:1010B00015D072B1012A0CD0022A0AD0032A09D114
:1010C00004E01AB1012A06D0022A03D1C96AC90173
:1010D00000D5012010BDC96AA142FAD010BD002A76
:1010E000F7D0012AF2D0022AF3D0032AF3D010BDA0
:1010F000F0B5D0E91964856D7460C46E14B1D0E99F
:101100001C466660154E04682644B6F5956F12D8E5
:1011100090F85C603F24B440AC600468256825F416
:101120008025256013E09A600068C160F0BD996079
:101130000068C260F0BD0A4D2C448C2CFAD8094CD2
:10114000012590F85C702668BD402E432660046837
:1011500063608368402B0368E9D1E4E7F0FFFDBFDB
:10116000F8ABFDA70454025800214FEA010210B564
:1011700000EB8203521C0F2AC3F87C12F8D3002222
:101180004FF400738418521C9A422177FAD301223B
:101190000170402341708270C0F8B81202768371EA
:1011A000417680F81C1280F81D22002010BD704787
:1011B000F0B50B4E891EFF2303221C4606F58077EF
:1011C000C9B206E0855C521CD2B25D40735D6340DB
:1011D0007C5D4D1EE9B2F5D244EA0320F0BD00006B
:1011E0005C0000240948817842784FF00500052909
:1011F00003D2B1FBF0F300FB131002EB8201044AAF
:101200001144084410F8060C704700004C000024FC
:1012100050F70008F0B5164C1D465A23A526070ABC
:101220002370832A6670E2702771607103D0822A6E
:101230000BD100200FE008780721A0710C48A170A5
:10124000FFF7B6FF010AE1712072F0BD23180A5CB6
:10125000401CC0B29A71A842F8D3681DC1B20448BC
:10126000A170FFF7A5FF6119020A8A71C871F0BD6C
:10127000DC4700240FB42DE9FC5FDDF880B04FEAB5
:101280004B60050E1C2000EBC501009100200BF007
:101290005FFC8226C67004464FF0030C80F804C041
:1012A0004FF0100980F805900022A91C9646A5234E
:1012B0001927082606725A262670637000F10A0A5A
:1012C000A67100F10B08E37107EBC509627284F89F
:1012D000029000BF01FB02F30020082A03F80A2055
:1012E00003F808B020D2DFE802F004203D5A7795D9
:1012F000B3D101FB02430193002313E0DE070AD0C0
:101300000CAEDDF804C003F10C07365C401C0CF891
:101310000760C0B204E0019F03F10C0C07F80CE079
:101320005B1CDBB2AB42E9D3CDE001FB024301938E
:10133000002314E0DE070BD00CAEDDF804C0371834
:1013400003F10C06401CBF7AC0B20CF8067004E032
:10135000019F03F10C0C07F80CE05B1CDBB2AB4205
:10136000E8D3B0E001FB02430193002314E0DE0761
:101370000BD00CAEDDF804C0371803F10C06401C8E
:101380003F7DC0B20CF8067004E0019F03F10C0C25
:1013900007F80CE05B1CDBB2AB42E8D393E001FB47
:1013A00002430193002314E0DE070BD00CAEDDF8FE
:1013B00004C0371803F10C06401CBF7FC0B20CF804
:1013C000067004E0019F03F10C0C07F80CE05B1CB5
:1013D000DBB2AB42E8D376E001FB0243019300238A
:1013E00015E0DE070CD00CAEDDF804C0371803F1B1
:1013F0000C06401C97F82870C0B20CF8067004E088
:10140000019F03F10C0C07F80CE05B1CDBB2AB4254
:10141000E7D358E001FB02430193002315E0DE0708
:101420000CD00CAEDDF804C0371803F10C06401CDC
:1014300097F83270C0B20CF8067004E0019F03F117
:101440000C0C07F80CE05B1CDBB2AB42E7D33AE0D4
:1014500001FB02430193002315E0DE070CD00CAE24
:10146000DDF804C0371803F10C06401C97F83C70F7
:10147000C0B20CF8067004E0019F03F10C0C07F8F1
:101480000CE05B1CDBB2AB42E7D31CE001FB024388
:101490000193002315E0DE070CD00CAEDDF804C08C
:1014A000371803F10C06401C97F84670C0B20CF8D0
:1014B000067004E0019F03F10C0C07F80CE05B1CC4
:1014C000DBB2AB42E7D3521CD2B2082AFFF402AF20
:1014D00009F0FF012046FFF76BFE04EBC501020A8D
:1014E0008A76C8762046009904F0D8FF2146BDE8E8
:1014F000FC1F00205DF814EB0BF01EBB2DE9FC4730
:101500004B480026006800287DD000231A46194663
:101510000DF0E8FA012876D146490122464803F049
:10152000A7F946490122444803F07EF9434841495E
:10153000C2788DF8012042788DF8022080788DF8ED
:10154000030008788DF8040048788DF80500887845
:101550008DF806000020FFF705FB394D2872E97968
:10156000814200D0E8713C28E8794FF0000900F191
:101570000100E87103D985F8079085F808900024E8
:10158000E87941F27077DFF8BC808DF80000002028
:1015900039460BF0DDFA611C48F82400CCB2082C67
:1015A000F5D3002428493A4658F824000BF0E0FA15
:1015B00058F824003246E97900F0A6FA40B940F222
:1015C0007711601C6143C4B2082C06EB0116E9D305
:1015D000E9794FF6FF70082200EA01316846E98197
:1015E00001F1FC7108F000F9E9790020FFF7DBFA5E
:1015F000287A0A214E46B0FBF1F0401CA87113482E
:10160000A0F8009000E010E00F4841F2B071FFF741
:1016100078F90024002058F824100BF08DFA601C93
:1016200048F82460C4B2082CF4D3BDE8FC8700005D
:1016300030000024AC4700248847002448000024E0
:101640004C00002440480024201B00242E000024CD
:101650002DE9F0470A253B4E00249246A6B0894664
:101660004FF40078074665E0306800210DF0DCF8A3
:10167000C00502D54FF4807152E033480A22494632
:101680000BF076FA30480A2249460A300BF070FA1D
:101690002D480A22494614300BF06AFA2A480A22D9
:1016A00049461E300BF064FA27480A224946283082
:1016B0000BF05EFA24480A22494632300BF058FA01
:1016C00021480A2249463C300BF052FA1E480A22B1
:1016D000494646300BF04CFA1B49402268461095AB
:1016E0001031FFF7D4F81849502211A8FFF7CFF8AE
:1016F0000DF1440C9CE80F00FFF7BCFD306841463B
:101700000DF0D2F8BAF1000F01D0642000E02820DB
:101710000CF07AFEB7FBF5F0401EA04206D1414620
:10172000306826B0BDE8F0470DF07EB8641CA4B266
:1017300009F10A09B7FBF5F0A04295D826B0BDE83B
:10174000F08700001800002460480024F0B50A2546
:101750000F4600240646A5B051E02C480A2239461F
:101760000BF006FA29480A2239460A300BF000FA33
:1017700026480A22394614300BF0FAF923480A2287
:1017800039461E300BF0F4F920480A223946283039
:101790000BF0EEF91D480A22394632300BF0E8F919
:1017A0001A480A2239463C300BF0E2F917480A225F
:1017B000394646300BF0DCF9144940226846109552
:1017C0001031FFF764F81149502211A8FFF75FF8B4
:1017D0000DF1440C9CE80F00FFF74CFD0C484FF452
:1017E000007100680DF060F828200CF00DFEB6FBCB
:1017F000F5F0401EA04206D0641CA4B20A37B6FB26
:10180000F5F0A042A9D825B0F0BD00006048002442
:10181000180000242DE9F04F954D95B0687AA9790C
:10182000401C814200D9A8714FF0000AAA794FF6F6
:10183000FF71904E45F2901B82426F464FF0200898
:101840006FD1A87A894644B211E0687A4FF0080255
:1018500000EB800107EBC40004EB410109EA013110
:10186000E98101F1FC7107F051FF641E64B2002CA4
:10187000EBDAA87A44B243E00A2C24D2DFE804F081
:1018800005080C0F1215181B1E214FF4A24001E091
:1018900045F21010A88116E045F22010FAE745F253
:1018A0003010F7E745F24010F4E745F25010F1E749
:1018B00045F26010EEE745F27010EBE74FF4A340FD
:1018C000E8E7A5F80CB007EBC40086F80080072312
:1018D0008222417871708178B170C178F17001799C
:1018E0003171417971718079B0716249A889FFF7CE
:1018F00091FC60480F211C3004F0D0FD641E64B2DE
:10190000002CB9DA092457463AE00A2C25D2DFE840
:1019100004F005090D101316191C1F224FF4A240E4
:1019200002E031E045F21010A88116E045F22010E7
:10193000FAE745F23010F7E745F24010F4E745F2D8
:101940005010F1E745F26010EEE745F27010EBE75A
:101950004FF4A340E8E7A5F80CB00020411C375431
:1019600048B20728FADB43490723A8898222FFF7F8
:1019700051FC40480F211C3004F090FD641E64B2FD
:10198000A87A8442C1DC5FE05ED209248946A87946
:101990000822401E00EB800004EB400009EA003101
:1019A000E98107EBC40001F1FC7107F0AFFE641E92
:1019B00064B2002CEBDA0924D94624E00A2C24D2A4
:1019C000DFE804F005080C0F1215181B1E214FF458
:1019D000A24001E045F21010A88116E045F2201067
:1019E000FAE745F23010F7E745F24010F4E745F228
:1019F0005010F1E745F26010EEE745F27010EBE7AA
:101A00004FF4A340E8E7A5F80C9007EBC40086F874
:101A1000008007238222417871708178B170C1788B
:101A2000F17001793171417971718079B071114929
:101A3000A889FFF7EFFB0F480F211C3004F02EFDA3
:101A4000641E64B2002CB9DA45F24F00A88186F812
:101A500000A00223A979822271700649FFF7DAFB00
:101A600004480A211C3004F019FD15B0BDE8F08FC0
:101A70004C000024C04700242DE9F84300240F4601
:101A80004FF41671804620460BF062F8642106463A
:101A900000200BF05DF8054666B15DB113A13A4632
:101AA000FEF774FD01222946304609F005FE18B103
:101AB000022410E001240EE041F270776B463A46B2
:101AC0004146304609F04BFFBDF80000B842FDD357
:101AD000304609F0E3FA002031460BF02DF80020E3
:101AE00029460BF029F82046BDE8F883313A4641F3
:101AF000554C5456414C55452F4E4F2E253032648F
:101B00002E62696E000000002DE9F843002417469C
:101B1000884681464FF4167120460BF019F864216F
:101B2000064600200BF014F8054666B15DB116A11B
:101B30004246FEF72BFD0B222946304609F0BCFD3C
:101B400018B1022415E0012413E000233A46304680
:101B500009F03CFB41F270776B463A464946304605
:101B60000AF074F8BDF80000B842FDD3304609F021
:101B700095FA002031460AF0DFFF002029460AF0DE
:101B8000DBFF2046BDE8F883313A4641554C5456B8
:101B9000414C55452F4E4F2E253032642E62696ED2
:101BA000000000001D482DE9F041817900244079B2
:101BB00001EB810100EB410041F270710A3800F045
:101BC000FF0820460AF0C4FF4FF44877064600207D
:101BD00039460AF0BDFF0546B6B1ADB141463046C3
:101BE000FFF74AFF0020315DC207295401D0E41DF0
:101BF00000E00834401C80B2A4B2B842F3D3012202
:101C000029463846FFF724FD002029460AF094FFB4
:101C10003146BDE8F04100200AF08EBF4C000024A0
:101C20002DE9F84F364DA879697900EB800001EB7A
:101C3000400041F270710A3800F0FF0800200AF0FD
:101C400087FF4FF496640090002021460AF080FF41
:101C500006004BD000984146FFF70EFF2A7900217D
:101C60004FF4166908464FF4616A4FF4965B062AF2
:101C70000DD2DFE802F00C030507090B002706E090
:101C8000274604E04F4602E0574600E05F46009BCF
:101C900007EB010C491C00F1010813F80C3089B264
:101CA00033541FFA88F0A042E1D345F24807AF81D0
:101CB00029790020134B144A03EB810151F8041CCD
:101CC000431C0D5C155498B20628F9D30E4906231F
:101CD00082223846FFF79EFA0B480E211C3004F092
:101CE000DDFB002231462046FFF7B2FC00203146E2
:101CF0000AF022FF00990020BDE8F84F0AF01CBF4F
:101D00004C0000243CF70008C04700242DE9F041B6
:101D10005D4EB288B6F809303078B17857BA5CBAFF
:101D20005A286ED17078A5286BD158480278C81C03
:101D3000824266D13046FFF73BFAA04261D1544D52
:101D4000002128680CF070FD524C13221221A7F5D7
:101D5000A0470C2F7AD2DFE807F00612182F37447D
:101D6000494D556B7C89307A6070286810B101212B
:101D70000CF09AFD6078042868D1C1031AE0307A2B
:101D8000A070286888B301215EE0307A0028E078EE
:101D900008D0401C40B2E070032801DD002007E0BD
:101DA000012107E0401E40B2E0700028F8DA03206D
:101DB000E070F5E7286847E0307A10B148F2010199
:101DC000F8E744F20101F5E72270317A21712A68BF
:101DD0005AB1800502D54FF4857100E00A21104602
:101DE00032E0286808B120212EE02FE0286868B38F
:101DF000042129E004206070286838B34FF00111F5
:101E000022E03EE0317A227011B1012908D01DE0B4
:101E1000800502D541F20A11CCE741F20A01C9E777
:101E2000800502D542F20A11C4E742F20A01C1E775
:101E3000B6F8070040BAA0F5D0510A3906D10B20F8
:101E40002070286810B112210CF02EFD0020BDE892
:101E5000F081307A6071627AA379521C934202D188
:101E6000A27A9042F2D821708221A3E721702A68D9
:101E7000002AEBD0800502D54FF4A171AFE74221D3
:101E8000ADE70120E3E70000384A00245D020024AA
:101E9000180000244C000024F0B5D1E90125D1E957
:101EA0000343D1E905762A43D1F800C044EA03048C
:101EB000D1E9073542EA0402496A42EA0702BCF165
:101EC000010F42EA060208D004681A432A430A4373
:101ED000E30BDB031A4302600BE0066844682B4304
:101EE00026F4F84529430B4303606FF30E042243A5
:101EF00042600020F0BD426942EA41014161002098
:101F0000704738B591E81C00C9686FF01F051A4387
:101F100005EB441444EA41210A4300920261002087
:101F200038BD00002DE9F043914691E81C006FF0A8
:101F30000F05521E2E0105EB03131A430B7E06EB11
:101F400004268C8A2F034FEA054C0D8A32434FF04A
:101F50007F4808EB0366CB68B9F1010F07EB054535
:101F60000CEB04540CD081683F1107EB03331A4388
:101F70002A432243324301F070410A43826011E058
:101F80008168DFF828C0C7681B03A3F5805323438B
:101F90002A4301EA0C0132430B43836007F070448B
:101FA0002243C2600020BDE8F0830000FF0F0FFF56
:101FB0002DE9F0470026044600F0DAFC8046D4B351
:101FC00094F835000027022804D08020606584F84A
:101FD000347030E020684FF495622C4943189342E6
:101FE000036809D823F01E0303602068436923F0C7
:101FF00080034361A66D02E023F00E030360206EB0
:10200000924625688946026822F480720260206840
:10201000016821F00101016010E000BF00F0A8FCA0
:10202000A0EB0800052809D920216165032084F868
:10203000347084F835000120BDE8F0872868C007B7
:10204000ECD12268012002EB0901514505D894F832
:102050005C203F219140B16005E094F85C100C4A8F
:1020600000FA01F11160D4E919124A60E16E31B150
:102070000A6822F480720A60D4E91C124A6084F86B
:10208000347084F835000020D6E70000F0FFFDBF73
:102090000454025810B528B190F83510022903D025
:1020A00080214165012010BD1D4A4FF495630168F0
:1020B0008C189C4207D8042280F83520086820F04C
:1020C0000100086029E00C6824F00E040C6001682F
:1020D0000A440A6822F001020A60016E0122114BD3
:1020E0000C6824F480740C6090F85C1002FA01F122
:1020F0001960D0E919134B60C16E31B10B6823F43C
:1021000080730B60D0E91C134B600023016D80F8D5
:10211000343080F8352001B18847002010BD000020
:10212000F0FFFDBF0454025870B5040024D094F8A9
:102130003500022822D020682A49036823F00103D1
:102140000360206800250144B1F5956F1AD821215C
:10215000056020684560206885602068C56020684B
:102160000561206841612046FEF736FF94F85C2047
:102170003F219140816016E0012070BD4FF4006066
:102180006065F9E7184901448C290CD801210560E4
:10219000226816485560226895602268D56094F8D8
:1021A0005C20914001602046FEF72AFF206E18B1A6
:1021B0000560D4E9190141606068401E072807D80E
:1021C0002046FEF74BFFE06E0560D4E91C0141603C
:1021D000E56625676567656584F83550002084F8F5
:1021E000345070BDF0FFFDBFF8ABFDA7045402589A
:1021F000406D70472DE9F84FAB4A00274FF4165356
:10220000044600974FF49569DFF898821668082213
:10221000A56DB6FBF3FB00682E6800EB080CCC45FF
:102220004FF0010A78D894F85C3002FA03F1314299
:102230000FD0016811F0040F0BD0016821F00401E8
:10224000016094F85C008240AA60606D40F001007B
:10225000606594F85C109548884030420DD0216844
:1022600001EB08024A452CD8496911F0800F04D0CF
:10227000A860606D40F0020060658C4894F85C10C6
:10228000C01C884030420DD0216801EB08024A454D
:1022900019D8096811F0020F04D0A860606D40F0F1
:1022A0000400606594F85C1010208840304224D00F
:1022B000216801EB08024A45096806D801F00801C7
:1022C00005E00868D9E70868ECE701F00401A1B16E
:1022D000A86020680168490304D50068000308D598
:1022E000A16C07E00168C90503D4016821F0080169
:1022F0000160216C09B12046884794F85C102020C9
:10230000884030423AD0216801EB08024A4509680A
:1023100003D801F0100102E065E001F0020169B3A9
:10232000A86094F8350004282068016806D04903A5
:1023300042D5006800031DD4616C1CE021F0160139
:1023400001602068416921F080014161206C08B979
:10235000A06C20B12068016821F00801016094F8A8
:102360005C203F219140A96084F8347084F835A046
:10237000216D31E0E16B09B120468847606D00288E
:1023800074D0606DC00726D02068042184F8351011
:10239000016821F00101016020680099491C009149
:1023A000594502D80168C907F7D184F8347000682C
:1023B000C0070DD003200CE00168C905DAD402681B
:1023C00022F01002026084F8347084F835A0D1E75E
:1023D000504684F83500E16C002960D001B02046F9
:1023E000BDE8F04F0847324901448C2957D8314D98
:1023F0000423E66D291DD5F800C003FA06F81CEA8F
:10240000080F13D0D0F800C05FEA4C7C0ED50268EC
:10241000920603D4026822F00402026094F85C2061
:102420000868934018430860216CD5E7D5F800C0D0
:10243000022303FA06F81CEA080F18D0D0F800C0EF
:102440005FEA8C7C13D50268920607D4056825F0F4
:102450000A05056084F8347084F835A094F85C208F
:102460000868934018430860E16BB5E717E02B68F4
:10247000B240134213D00268120710D5026822F04E
:102480000E02026094F85C3050460A680AFA03F3C0
:102490001A430A60C4F854A084F8347099E7BDE880
:1024A000F88F0000F0FFFDBF1C0000240100800039
:1024B000F8ABFDA7005402582DE9F05F044600F088
:1024C00057FA002C064656D0614A022120684FF088
:1024D000010B4FF0200A4FF0030702444FF0400970
:1024E000B2F5956F4FF0000551D884F8345084F858
:1024F0003510016821F00101016006E000F038FAB2
:10250000801B052801D9504680E020680068C0077C
:10251000F4D104F108002268D4E9051C89C81843E5
:10252000D4E907380F43116838434A4F40EA0C009A
:10253000666A1843394040EA0800042E40EA010068
:1025400003D1D4E90B131943084310602068666A6D
:102550004069042E20F0070046EA00060CD1D4E9B9
:102560000A01064341B12046FEF798FD20B1C4F8A8
:10257000549084F835B04CE0206846612046FEF760
:102580002BFD94F85C203F219140816031E0324A7C
:1025900083188C2B39D884F8345047F6F07684F8B9
:1025A00035100168A36821EA0609402B28D0802B4A
:1025B00028D00021D4E903C304F1140641EADC0861
:1025C00096E8C01048EAD303D4F8208043EAD60343
:1025D00043EAD70114230AEADC06314341EA181121
:1025E00041EA0901016020681044B0FBF3F080006B
:1025F000E0652046FEF704FDA06880280CD00CE0C2
:102600001021D7E74FF48041D4E74846606584F84D
:1026100035700120BDE8F09F6560216E207908606B
:10262000D4E9190141606068401E072808D8204697
:10263000FEF714FDE06E0560D4E91C01416002E084
:10264000E56625676567656584F835B00020E1E7D4
:10265000F0FFFDBF3F8010FEF8ABFDA72DE9F0476E
:10266000040089464FF0000613D094F83400012886
:1026700011D094F835500120002184F83400012D48
:102680000BD0C00284F83410012660653046BDE8E6
:10269000F0870120FBE70220F9E7234D4FF0020C01
:1026A00020684FF4956784F835C06165016821F0B2
:1026B0000101016049462046FEF71AFD20684119D4
:1026C000B942016810D821F01E0141F016010160E5
:1026D0002068416941F080014161206C80B120682F
:1026E000016841F008010AE021F00E0141F00A0101
:1026F0000160206C20B12068016841F00401016094
:10270000206E0168C90303D5016841F4807101603E
:10271000E06E18B1016841F48071016020680168C1
:1027200041F001010160B1E7F0FFFDBF70B5044663
:1027300000F01EF90546601C02D0044800780444ED
:1027400000F016F9401BA042FAD370BD38000024F7
:102750000248016841F001010160704720040058FF
:102760002DE9F84F6F4D00224FF001094FF0030E95
:102770004FF00F0B0B6809FA02F803EA0803434510
:1027800074D14C68022C01D0122C0FD1D4080E69E0
:10279000570700EB8404A246246AFF0E0BFA07FCDD
:1027A000BE4024EA0C042643CAF820600F79540086
:1027B00006680EFA04FC07F0030726EA0C06A74099
:1027C000374307604E68012E05D0022E03D0112E2C
:1027D00001D0122E0FD18668CF6826EA0C06A740DA
:1027E0003743876046680F7926EA0806C7F3001763
:1027F000974037434760C7688E6827EA0C07A640B2
:102800003E43C6604C68E40030D5474C266846F02D
:1028100002062660246822F0030606F1B04604F0A2
:10282000020400949407270FD6F80844DFF8FC80D0
:102830000BFA07FC404524EA0C0402D14FF0000CCF
:1028400041E0DFF8ECC0604502D14FF0010C3AE006
:10285000DFF8E0C0604502D14FF0020C33E0DFF852
:10286000D8C0604503D14FF0030C2CE053E0DFF8F3
:10287000CCC0604502D14FF0040C24E0DFF8C0C0AA
:10288000604502D14FF0050C1DE0DFF8B8C060458F
:1028900002D14FF0060C16E0DFF8ACC0604502D163
:1028A0004FF0070C0FE0DFF8A4C0604502D14FF0F5
:1028B000080C08E0DFF898C0604502D14FF0090C21
:1028C00001E04FF00A0C0CFA07FC4CEA040CC6F8C5
:1028D00008C42C684E6824EA0304F60300D51C43A0
:1028E0002C606C684E6824EA0304B60300D51C43D0
:1028F0006C604FF0B0444F682668FF0226EA03067A
:1029000000D51E4326604F686668BF0226EA0306AC
:1029100000D51E436660521C102AFFF42BAFBDE8A1
:10292000F88F000080000058F4440258000002585C
:102930000004025800080258000C02580010025807
:102940000014025800180258001C025800200258B7
:10295000002402580069084000D0012070474269F5
:102960004A40426170470AB1018370474183704712
:10297000014880687047000038000024D0F89402B5
:1029800005F052B9D0F8940205F062B9006806F07B
:10299000F9BA006806F0FABA01EB810100EBC10058
:1029A00090F85C00704701EB810100EBC100C06C46
:1029B000704710B5044690F89002012809D0012014
:1029C00084F89002206806F0ECFA002084F8900267
:1029D00010BD022010BDFEB50546DDE9096095F881
:1029E0009042089F012C23D001EB81044FF0010C91
:1029F00085F890C202F07F0C05EBC4044FEAD21EAA
:102A000084F83830A4F8400084F8391084F83F6026
:102A100084F83AC084F83BE084F83C700097CDE934
:102A20000160286806F07AFB002185F89012FEBD4F
:102A30000220FEBD704700002DE9F00301EB810488
:102A40004FF0020600EBC404DDF824C0DDF8188066
:102A5000DDE9079784F83B20B8F1000F84F83F3098
:102A60000CD084F8426000BF4FF0000553B1012B39
:102A70003ED0022B1CD0032B29D11FE0032584F864
:102A80004250F1E7B8F1010F21D102BB8FB9012209
:102A900084F8512003E000BF84F8425001E084F83C
:102AA000426094F85C20022A11D084F83DC00EE008
:102AB0002AB994F85120002AF1D1EDE712B194F827
:102AC000502001E094F8512092B184F84260C4E9AA
:102AD000119784F85C50E56484F8391004F13801EA
:102AE00084F85D50027C0068BDE8F00306F092BBFC
:102AF00084F84250EBE700002DE9F04104460068FD
:102B00000025064606F049FA01287DD1206806F026
:102B1000C7FC002878D0206806F0C2FC800203D5EC
:102B200021684FF400104861206806F0B9FCC0022B
:102B300003D521684FF480104861206806F0B0FC8E
:102B4000400103D521684FF080604861206806F09D
:102B5000A7FC800702D5216802204861206806F0A2
:102B60009FFC800010D5D6F8400420F02E00C6F857
:102B700040042046FFF706FF2068012106F074FCA0
:102B800021684FF000504861206806F089FCC001C0
:102B900002D5204602F012FE206806F081FC0007F4
:102BA00005D5204600F0B5F8216808204861206866
:102BB00006F076FC800120D5206806F025FB07464C
:102BC0004FF0010812E000BF08FA05F038420CD0BF
:102BD00006EB4510D0F80005E9B20004204602D506
:102BE00002F0C2FB01E002F0D7FC6D1CA068A84215
:102BF000EAD821684FF000704861206806F050FC68
:102C0000C0060ED5206800E00BE0816921F01001BC
:102C10008161204602F02AFE2068816941F010019E
:102C20008161BDE8F08130B504008BB026D003206F
:102C300084F89102204600F023F8206806F03EF95F
:102C400004F11001684628220D46FDF720FE94E8A5
:102C50000F0006F0DFF82068012106F04AFC282268
:102C600029466846FDF713FE94E80F0006F098FB2E
:102C7000012084F8910200200BB030BD0120FBE759
:102C800010B5B6B004464FF480204FF440112191A6
:102C90000090684600F048FC1949206888422CD111
:102CA0001848016841F00101016000680DF1BC0C99
:102CB000022100F001003490002203230A244FF483
:102CC000C0508CE81F0010482FA9FFF749FD0121D3
:102CD000032003F0BBF80B480838016841F000619D
:102CE000016000680022062100F000603490652039
:102CF00000F0CAF8652000F0BAF836B010BD000048
:102D000000000840E044025800000258006806F045
:102D1000DABBD0F8940204F0E7BF10B5044690F88F
:102D2000900201280DD0012084F89002206806F05E
:102D300001F92068012106F0E7F8002084F89002EC
:102D400010BD022010BD10B5044690F89002012875
:102D500009D0012084F89002206806F0E0FB0020F2
:102D600084F8900210BD022010BD00000248816866
:102D7000027811448160704738000024032010B5A8
:102D800000F0A2F8002000F007F808B1012010BD03
:102D900000F06CF8002010BD70B50D4D04464FF4E6
:102DA0007A700C4A29781268B0FBF1F0B2FBF0F0AF
:102DB00001F0F8FF48B9102C07D200222146501E1E
:102DC00000F062F800206C6070BD012070BD000052
:102DD000380000241C000024F0B5154C4378211D58
:102DE0000A1D23600378F3B143680B60057BC67A44
:102DF000817A437B2D07847B45EA0665C77B90F883
:102E000009C0067A90F800E045EAC14040EA8340F4
:102E100040EA444040EA074040EA0C2040EA4600CD
:102E200040EA0E0001E0002008601060F0BD0000E4
:102E300098ED00E00549054870300A6822F48032B8
:102E40000A60016821F001010160704724ED00E093
:102E5000054A40F00100044970321060086840F4EF
:102E6000803008607047000024ED00E070470028C3
:102E700009DB410900F01F028900012001F1E02176
:102E80009040C1F8000170470E4BF0B41B680D462E
:102E9000C3F30223C3F10706042E00D90426191D2B
:102EA000072901D2002300E0DB1E012404FA06F109
:102EB0009C40491E2940641E994014402143F0BCA7
:102EC00006F074BD0CED00E0064900F0070210B5F5
:102ED0004FF6FF040868044B204040EA02201843E4
:102EE000086010BD0CED00E00000FA050248016822
:102EF00041F08071016070470C4802580248016837
:102F000041F4807101607047004802582DE9F84F84
:102F100017468B460446FFF72BFD824694F8400087
:102F200001280ED001264FF0000884F8406094F884
:102F30004100012807D0022584F840802846BDE8DA
:102F4000F88F0220FBE74FF00209C4F8448084F8B0
:102F500041900022202153462046009703F01AF9A1
:102F60000500E9D100225946204602F095FFDBF822
:102F7000240058B90122534602212046009703F04D
:102F800009F90500D8D12168C1F80C9084F8416096
:102F9000D2E700002DE9F84F0446FFF7E9FC0646AA
:102FA00064B194F8400001280BD000254FF0010ACD
:102FB00084F840A094F8410028B10CE00120BDE85D
:102FC000F88F0220FBE784F84050204600F05AF8C2
:102FD00041F28830A06421684FF47062A06892FAD0
:102FE000A2F30A68401EB3FA83F322F47062984099
:102FF00002430A60A06C0022202133460090204644
:1030000003F0C8F8B0BB23684FF07F42666892FABD
:10301000A2F7E168D4E907C299461B68B7FA87F8B6
:10302000164F41EA0C0106FA08F6324311434FF4F9
:10303000F8123B4092FAA2F21943C9F80010B2FA12
:1030400082FC2268D4E904310D4FA669D2F80480CD
:1030500003FA0CF308EA0708314348EA030841EA97
:103060000801516021680A6842F001030B60656441
:1030700084F841A084F84050A1E700002FFFFF0032
:10308000FEF8E0FF214830B587B0016841F4804187
:103090000160006800F4804005901C480C30016815
:1030A00041F002010160016801F00201059101682F
:1030B00041F020010160006803240221144D00F05A
:1030C00020000590402001220A2304938DE8170078
:1030D00069462846FFF744FB0021CDE9021420028F
:1030E0000C4C694600902046FFF73AFB0420009004
:1030F0000921284604916946FFF732FBC020694642
:1031000000902046FFF72CFB07B030BDD444025896
:1031100000040258001402582DE9F84F15460E46D7
:103120000446FFF725FC82462068816994F8403008
:1031300000F12009012B0DD001274FF0000884F881
:10314000407094F84120012A06D0022084F8408083
:10315000BDE8F88F0220FBE7C4F844809EB322222A
:1031600084F841200269521CA2630269521C626306
:103170002663426922F0406242F080624261206828
:1031800081610DE00621204603F004F8C0B999F8EA
:103190000020206B411C21630270A06B401EA063C5
:1031A000A06B53464FF0010200950028EAD14FF082
:1031B0000201204602F0EEFF10B922680221D16020
:1031C00084F84170C2E7FFE7616C012041F008011B
:1031D0006164BBE72DE9F84F15460E460446FFF73C
:1031E000C7FB94F8401082462068012900F12009AD
:1031F0000ED001274FF0000884F8407094F8411079
:10320000012907D05FF0020084F84080BDE8F88F04
:103210000220FBE7C4F844807EB3122184F84110F9
:103220000169491CE1620169491CA1626662416948
:1032300021F0406141610DE00421204602F0AAFF27
:10324000C0B9606A411C6162017889F80010E06AC7
:10325000401EE062E06A53464FF0010200950028EC
:10326000EAD14FF00201204602F094FF10B9226823
:103270000221D16084F84170C6E7FFE7616C01204C
:1032800041F008016164BFE710B500F04BFF084949
:103290004FF480730A6893FAA3F3064902F470624C
:1032A000B3FA83F3DA40044B9A5CD040086010BD57
:1032B000184402581C0000240CF7000810B500F058
:1032C000EBFE07491022096892FAA2F201F07001A0
:1032D000B2FA82F2D140034A515CC84010BD0000EE
:1032E000204402580CF70008424A30B5414D141DE5
:1032F00013681435DFED400A1268291FB7EE001A73
:1033000024682D6813F0030304F01004C2F305329F
:10331000C5F3CC0515FB04F400EE104AB8EE400AE4
:1033200005D0364C012B5DD0022B5BD159E0314CDE
:10333000334B283C2568AD0615D525680C68C5F3C8
:10334000C105C4F30804EB4001EE904AB3FBF2F26E
:10335000F8EE611A40EE201A00EE102A71EE810A92
:10336000B8EE400A10E00C68B3FBF2F2C4F30804B4
:1033700001EE904AB8EE612A01EE902A00EE202A72
:10338000B8EE610A72EE010A0A6820EE200AC2F362
:103390004622521C00EE902AF8EE600A80EE201AB7
:1033A000FCEEC10AC0ED000A0A68C2F30642521CD4
:1033B00000EE902AF8EE600A80EE201AFCEEC10AB8
:1033C000C0ED010A0968C1F30661491C00EE901ABC
:1033D000F8EE600A80EE201ABCEEC10A80ED020A07
:1033E00030BD084C0B68B4FBF2F2C3F3080301EEE6
:1033F000903ABFE7284402580000003900093D0018
:103400000090D00340787D01424A30B5414D141DF3
:1034100013681C35DFED400A1268291FB7EE001A49
:1034200024682D6813F0030304F48074C2F305527A
:10343000C5F3CC0515FB04F400EE104AB8EE400AC3
:1034400005D0364C012B5DD0022B5BD159E0314CBD
:10345000334B283C2568AD0615D525680C68C5F3A7
:10346000C105C4F30804EB4001EE904AB3FBF2F24D
:10347000F8EE611A40EE201A00EE102A71EE810A71
:10348000B8EE400A10E00C68B3FBF2F2C4F3080493
:1034900001EE904AB8EE612A01EE902A00EE202A51
:1034A000B8EE610A72EE010A0A6820EE200AC2F341
:1034B0004622521C00EE902AF8EE600A80EE201A96
:1034C000FCEEC10AC0ED000A0A68C2F30642521CB3
:1034D00000EE902AF8EE600A80EE201AFCEEC10A97
:1034E000C0ED010A0968C1F30661491C00EE901A9B
:1034F000F8EE600A80EE201ABCEEC10A80ED020AE6
:1035000030BD084C0B68B4FBF2F2C3F3080301EEC4
:10351000903ABFE7284402580000003900093D00F6
:103520000090D00340787D012DE9FC5F0446FE4DFC
:1035300050F8241B0026DFF8F4933746009008016A
:1035400023D5606E50B1B0F5801F0CD0B0F5001FD0
:1035500011D0B0F5401F23D0012615E0286840F4B3
:10356000003028601CE0286840F400102860201D0E
:1035700002F034FE06E0286840F080702860009871
:1035800002F096FE06000BD037462088C00529D5EC
:10359000606D052824D2DFE800F00C11192121000C
:1035A000626ED9F8001021F440111143C9F80010DF
:1035B000EBE7286840F4003028600FE0286840F40A
:1035C00000202860201D02F009FE06E0286840F473
:1035D00080002860009802F06BFE06466EB100E0A5
:1035E00001263743208880052ED5A06D802821D064
:1035F0000CDC90B140280ED114E0626DD9F80010B7
:1036000021F007011143C9F80010EBE7C02819D0D9
:10361000B0F5807F16D0012615E0286840F4003010
:1036200028600FE0286840F400202860201D02F088
:10363000D5FD06E0286840F480002860009802F07C
:1036400037FE064696B137432088DFF8E082400512
:1036500008F1080832D5D4F8A400B0F5800F23D0C3
:103660000DDCA0B1B0F5001F0FD115E0A26DD9F8A7
:10367000001021F4E0711143C9F80010E4E7B0F53F
:10368000C00F19D0B0F5000F16D0012615E028683C
:1036900040F4003028600FE0286840F400202860E3
:1036A000201D02F09BFD06E0286840F480002860A1
:1036B000009802F0FDFD064676B1374320880005EC
:1036C00033D5D4F8A800B0F1007F24D00EDCA8B127
:1036D000B0F1807F10D116E0D4F8A420D8F8001003
:1036E00021F460011143C8F80010E7E7B0F1407F12
:1036F00019D0B0F1806F16D0012615E0286840F48B
:10370000003028600FE0286840F400202860201D69
:1037100002F064FD06E0286840F48000286000980C
:1037200002F0C6FD06466EB137432068800122D5FF
:10373000A06CF0B110280FD0202812D0302818D05B
:10374000012617E0D4F8A820D8F8001021F0E06195
:103750001143C8F80010E8E7286840F400302860FA
:1037600007E0286840F400102860201D02F036FDB4
:1037700006466EB137432088C00431D5E06DB0F500
:10378000005F23D00DDCA0B1B0F5805F0FD115E054
:103790006648A26C001F016821F0300111430160EE
:1037A000E9E7B0F5405F19D0B0F5804F16D001269B
:1037B00015E0286840F4003028600FE0286840F4E5
:1037C00000202860201D02F009FD06E0286840F472
:1037D00080002860009802F06BFD064686B13743F2
:1037E000208880042FD5206EB0F5403F29D010DC12
:1037F00038B3B0F5803F14D0B0F5003F0FD118E0DA
:10380000E26DD9F8001021F4E0411143C9F800102D
:10381000E6E7B0F5802F14D0B0F5A02F11D0012627
:1038200010E0286840F480102860201D02F0D6FCCB
:1038300006E0286840F400002860009802F038FD97
:1038400006468EB137432088400430D5D4F8AC000A
:10385000B0F1405F29D010DC38B3B0F1805F14D0F4
:10386000B0F1005F0FD118E0226ED9F8001021F4FA
:10387000E0211143C9F80010E5E7B0F1804F14D002
:10388000B0F1A04F11D0012610E0286840F480105C
:103890002860201D02F0A2FC06E0286840F4000029
:1038A0002860009802F004FD06466EB13743208878
:1038B000000422D5E06EF0B1B0F1805F0ED0B0F11F
:1038C000005F10D0012617E0D4F8AC20D8F8001023
:1038D00021F0E0411143C8F80010E8E7286840F4FF
:1038E0000030286007E0286840F480102860201D20
:1038F00002F074FC06466EB137432068C00126D53D
:10390000606C10B3012813D0022816D003281CD0F5
:1039100001261BE0E26ED9F8001021F0405111435E
:10392000C9F80010E9E700002C440258504402583E
:10393000286840F40030286007E0286840F4001050
:103940002860201D02F04AFC064676B13743206805
:10395000DFF8F4B340021FD5FC48016841F48071E0
:103960000160FFF705F8824610E0F748626C3C30D2
:10397000016821F0030111430160E8E7FEF7F8FF59
:10398000A0EB0A00642801D9032604E0EF48006890
:10399000C005F3D58EB137432078DFF8ACA3C0075C
:1039A0000AF1440A78D0A06F182873D05CDCC8B341
:1039B00008285FD010285BD164E0DFF88CA3B4F84E
:1039C000B0100AF1600ADAF8000001F4407100F466
:1039D0004070884211D0DAF80010DAF8002021F4A3
:1039E000407142F48032CAF80020DAF8002022F454
:1039F0008032CAF80020CAF80010D4F8B000B0F540
:103A0000807F14D1FEF7B4FF01900CE0FEF7B0FF09
:103A10000199411A41F28830814204D9032647F0C6
:103A20000307B9E736E0DAF800008007EED5D4F8EE
:103A3000B010C1F30120032858460DD0016821F4CD
:103A40007C510160B4F8B020DAF80010C2F30B0228
:103A50001143CAF800109FE7BD4A036802EA111239
:103A600023F47C511143ECE7202813D0282811D0EF
:103A7000012610E0286840F480102860201D02F024
:103A8000ADFB06E0286840F400002860009802F0D2
:103A90000FFC06465EB137432078800724D5606F5F
:103AA00006281FD2DFE800F01C0C141C1C1CA26F9F
:103AB000DAF8001021F038011143CAF80010EBE7E2
:103AC000286840F480102860201D02F087FB06E083
:103AD000286840F400002860009802F0E9FB0646E0
:103AE00076B100E0012637432078400725D5D4F889
:103AF000900006281FD2DFE800F01C0C141C1C1CD0
:103B0000626FDAF8001021F007011143CAF80010C3
:103B1000EAE7286840F480102860201D02F05EFB70
:103B200006E0286840F400002860009802F0C0FB1E
:103B300006469EB100E0012637432078800631D545
:103B4000D4F88C00B0F1405F2AD011DC40B3B0F162
:103B5000805F15D0B0F1005F10D119E0D4F890204B
:103B6000D8F8001021F007011143C8F80010E4E76D
:103B7000B0F1804F14D0B0F1A04F11D0012610E069
:103B8000286840F400202860201D02F027FB06E092
:103B9000286840F080702860009802F089FB064693
:103BA0008EB137432078400631D5D4F89800B0F56F
:103BB000406F2AD011DC40B3B0F5806F15D0B0F55E
:103BC000006F10D119E0D4F88C20DAF8001021F041
:103BD000E0411143CAF80010E4E7B0F5805F14D06B
:103BE000B0F5A05F11D0012610E0286840F4002055
:103BF0002860201D02F0F2FA06E0286840F080708C
:103C00002860009802F054FB06468EB137432078B6
:103C1000000631D5D4F89C00B0F5C04F2AD011DC95
:103C200040B3B0F5005F15D0B0F5804F10D119E06A
:103C3000D4F89820D8F8001021F4E0511143C8F8C6
:103C40000010E4E7B0F5004F14D0B0F5204F11D0CC
:103C5000012610E0286840F400202860201D02F0B2
:103C6000BDFA06E0286840F080702860009802F0F5
:103C70001FFB064666B33743207800070BD5D4F800
:103C80008010B1F5805F2DD0DAF8002022F4405288
:103C90000A43CAF800202078C0060BD5D4F8941047
:103CA000B1F5807F26D0D8F8002022F440720A4374
:103CB000C8F800202068000336D5D4F8A00008B367
:103CC000B0F5803F26D0B0F5003F2BD001262AE08A
:103CD000D4F89C20D8F8001021F460411143C8F8B2
:103CE0000010C9E7009802F0E3FA286840F08070FD
:103CF0002860D0E7009802F0DBFA286840F0807076
:103D00002860D7E7286840F400202860201D02F0D2
:103D100065FA06E0286840F080702860009802F09C
:103D2000C7FA0646B6B13743206840032BD5D4F80E
:103D30008400B0F5801F17D0B0F5001F19D0B0F582
:103D4000401F1ED001261DE01044025800480258B2
:103D5000CFFFFF00D4F8A020D8F8001021F44031A4
:103D60001143C8F80010DFE7286840F400302860ED
:103D700007E0286840F400002860009802F098FAF4
:103D8000064656B137432068C0031FD5E06C70B1BA
:103D9000B0F5803F10D0012617E0D4F88420DAF87F
:103DA000001021F440111143CAF80010EBE7286815
:103DB00040F40030286007E0286840F400102860D4
:103DC000201D02F00BFA0646DEB137432068800062
:103DD00007D5286840F080702860009802F068FAE3
:103DE0000743206880031AD5E06FB0B1B0F5807F3B
:103DF0000FD0B0F5007F10D0B0F5407F0DD0012678
:103E00000CE02D48E26C016821F48031114301601F
:103E1000DCE7286840F400302860EEB337432068C0
:103E2000C00207D5226FD9F8001021F000411143DC
:103E3000C9F800102068C00008D5D4F8B420DBF819
:103E4000001021F480411143CBF80010206880025B
:103E500007D5A26ED9F8001021F080711143C9F87E
:103E60000010206840000CD5DBF8001021F4004160
:103E7000CBF80010DBF80010D4F8B8201143CBF8D1
:103E800000102068002806DA0B48226D016821F036
:103E900040511143016000E003E05FB10120BDE843
:103EA000FC9FE26FDAF8001021F440711143CAF868
:103EB0000010B4E70020F2E74C4402582DE9F04727
:103EC000DFF8C49104460E46D9F8000000F0070060
:103ED000B0420CD2D9F8001021F007013143C9F8E3
:103EE0000010D9F8000000F00700B04272D120782D
:103EF000DFF89881800707D5E268D8F8001021F034
:103F00000F011143C8F800102078C00767D05F493F
:103F1000A368D8F80020183922F470621A43C8F850
:103F20000020606802281CD003281DD009680128E1
:103F30001DD04907002963DA544D083D296821F056
:103F4000070101432960FEF713FD6168074641F24E
:103F50008830022914D0032920D0012982462AD092
:103F600039E009688903E5E709688901E2E7C905DD
:103F7000E0E700BFFEF7FCFCC11B514501D926E07C
:103F800082462868C0F3C2000228F3D127E000BFB0
:103F9000FEF7EEFCC11B514501D918E082462868A6
:103FA000C0F3C2000328F3D119E000BFFEF7E0FC24
:103FB000C11B51450BD82868C0F3C2000128F5D1B8
:103FC0000DE000BFFEF7D4FCC11B514503D903200F
:103FD000BDE8F08714E0286810F0380FF2D1D9F866
:103FE0000010484601F00701B1420BD9016821F0E9
:103FF000070131430160006800F00700B04201D0C2
:104000000120E5E72078400707D52269D8F800109D
:1040100021F070011143C8F8001021781B48001DE1
:10402000090705D56269016821F07001114301603B
:104030002178C90605D5A269016821F4E061114320
:1040400001602078800607D51048E26908300168D1
:1040500021F070011143016000F064F8D8F80010FD
:104060004FF4807292FAA2F201F47061B2FA82F215
:10407000D140074A515CC840064908600020FEF75D
:104080008BFE0020A4E700000020005218440258D4
:104090000CF700081C00002410B5FFF7F5F80849DC
:1040A00001230A6893FAA3F3064902F00F02B3FA58
:1040B00083F3DA40044B9A5CD040086010BD0000E6
:1040C00018440258200000240CF7000810B5FFF730
:1040D000E3FF07491022096892FAA2F201F0700189
:1040E000B2FA82F2D140034A515CC84010BD0000D0
:1040F0001C4402580CF7000810B5FFF7CDFF074924
:104100004FF48072096892FAA2F201F4E061B2FA07
:1041100082F2D140024A515CC84010BD1C44025892
:104120000CF700084749F0B547480968454B103B74
:1041300011F0380409D00111082C04D0434A102C86
:104140000BD0182C0BD00846F0BD19688906FBD59A
:104150001968C1F3C101C840F0BD1046F0BD394C2B
:10416000DFF8E0C01834261D0CF1240C2768351D3B
:104170002468DFED370AB7EE001A3668DCF800C0B5
:1041800017F0030706F00106C4F30514CCF3CC0CBA
:104190001CFB06F600EE106AB8EE400A09D0012FAB
:1041A00001D0022F3BD02868B1FBF4F1C0F3080026
:1041B0003AE01968890615D51A682968C2F3C10260
:1041C000C1F30801D04001EE901AB0FBF4F0F8EE14
:1041D000611A40EE201A00EE100A71EE810AB8EE64
:1041E000400A0BE02968B0FBF4F0C1F3080101EECE
:1041F000901AB8EE612A01EE900A1BE020EE200A28
:104200002868C0F34620401C00EE900AF8EE600AD1
:1042100080EE201ABCEEC10A10EE100AF0BD28682C
:10422000B2FBF4F1C0F3080001EE900AB8EE612A87
:1042300001EE901A00EE202AB8EE610A72EE010A31
:10424000DCE70000104402580090D00340787D0164
:10425000000000392DE9F05FFD4C0546007841F281
:104260008838DFF8EC93103CF94FC00709F11809C2
:104270004CD03868C0F3C20002281AD03868C0F3A6
:10428000C200032805D1D9F8000000F0030002287D
:104290000FD06868B0F5803F12D010B1B0F5A02FF4
:1042A00018D0206820F480302060206820F480201E
:1042B00009E02068800329D5686800286CD025E0D3
:1042C000206840F480302060686890B1FEF750FBB1
:1042D00006460AE0206840F480202060F0E700BF36
:1042E000FEF746FB811B414575D820688003F7D552
:1042F0000CE0FEF73DFB064605E000BFFEF738FB8D
:10430000811B4145F0D820688003F7D42878D04E2F
:104310000C3E800769D538684FF47C3B10F0380FAD
:1043200013D03868C0F3C200032803D1D9F80000C5
:1043300080070AD0E86870B3216821F019010143B1
:104340002160FEF715FB82462EE02068400702D56B
:10435000E8680028B2D0E968206820F01900084316
:104360002060FEF705FB824606E000BFFEF700FB7B
:10437000A0EB0A000228B7D820684007F6D52969C3
:1043800032689BFAABF0B0FA80F0814022F47C30C6
:104390000843306029E016E0BEE000BFFEF7E8FA0F
:1043A000A0EB0A0002289FD820684007F6D52869AC
:1043B00032689BFAABF1B1FA81F1884022F47C318A
:1043C0000143316011E0206820F001002060FEF719
:1043D000CFFA824606E0EFE0FEF7CAFAA0EB0A0049
:1043E00002288FD820684007F6D42878C00647D521
:1043F00038684FF0F84BC0F3C200012815D0386878
:10440000C0F3C200032805D1D9F8000000F0030072
:1044100001280AD0E8690028206822D040F08000F6
:104420002060FEF7A5FA82460CE02068C0050CD596
:10443000E869802870D108E0FEF79AFAA0EB0A003C
:10444000022898D82068C005F6D5286A32689BFAF9
:10445000ABF1B1FA81F1884022F0F84101433160BB
:104460000EE020F080002060FEF782FA064604E0AD
:10447000FEF77EFA801B022895D82068C005F7D485
:104480002878000729D57248696964300029824676
:10449000016811D041F001010160FEF769FA06469A
:1044A00005E000BFFEF764FA801B022899D8DAF80D
:1044B00000008007F6D510E021F001010160FEF751
:1044C00057FA064605E000BFFEF752FA801B0228A5
:1044D00072D8DAF800008007F6D42878800625D54F
:1044E000A8690028206810D040F480502060FEF7B2
:1044F0003FFA064605E000BFFEF73AFA801B0228A5
:104500005AD820688004F7D510E020F4805020604D
:10451000FEF72EFA064606E0D4E000BFFEF728FAC2
:10452000801B022848D820688004F7D428784007E8
:104530004DD5DFF820A1DAF8001041F48071CAF8F7
:104540000010FEF715FA064605E000BFFEF710FA68
:10455000801B642830D8DAF80000C005F6D53C4E40
:10456000A868603601280AD008B1052811D0306843
:1045700020F001003060306820F0040002E0306874
:1045800040F001003060A86890B1FEF7F1F9824672
:104590000AE0306840F004003060F0E7FEF7E8F928
:1045A000A0EB0A01414507D830688007F6D50EE038
:1045B000FEF7DEF9824607E083E000BFFEF7D8F998
:1045C000A0EB0A0141457CD830688007F6D4686AC0
:1045D000E8B33968C1F3C201032973D00228206807
:1045E00020F08070206003D0FEF7C2F9054683E01A
:1045F000FEF7BEF9064604E0FEF7BAF9801B022872
:1046000077D820688001F7D4EB6A40F2F332D9F80A
:1046100000104FF4FE0755F8286F914341EA03114B
:104620003143C9F80010287B4FF0FE4C084EB5F816
:10463000088040022B8A20362A7DA8F10108311D0E
:10464000A0F5007080B25B1EC8F3080804E056E0D5
:104650001044025800480258521E07EA034340EA39
:1046600008000CEA02674FF6F872184338433060CE
:104670000B6892FAA2F72E6AB7FA87F7224893439B
:10468000BE4033430B600168AA6921F00C0111435D
:1046900001600168EA6921F00201114301600168CB
:1046A00041F480310160016841F40031016001682A
:1046B00041F480210160016841F00101016020683E
:1046C00001E016E01DE040F080702060FEF750F938
:1046D000054604E0FEF74CF9401B022809D8206883
:1046E0008001F7D50BE000BFFEF742F9401B02281E
:1046F00002D90320BDE8F09F20688001F4D4002097
:10470000F8E70120F6E700002C44025810B5040039
:1047100010D02068016821F02C01016020684168F8
:1047200021F060014160204600F05AF800206072DC
:10473000207210BD012010BD2DE9F0470446007A1B
:104740000026894601280CD0607A0127B0462772DE
:10475000012808D05FF0010684F808803046BDE8E3
:10476000F0870220FBE702206072FEF701F90546A0
:104770000BE000BFFEF7FCF8401B022805D904211E
:104780006172032084F80880E9E720684068C0432C
:10479000C007EFD120688068E060C9F80000677248
:1047A000DAE710B5040002D0607A10B106E001200B
:1047B00010BD00202072204600F014F80220607224
:1047C0000122D4E90003016821F0200119430160AE
:1047D0002068016841F0040101606272002010BD90
:1047E0007047000000B5B1B04FF4003041121F9186
:1047F00000906846FEF798FE0548016841F04001C8
:104800000160006800F040002F9031B000BD000052
:10481000DC4402580068503050F8210070470068AE
:10482000503040F82120704710B50B4601680F4802
:10483000002A496801EA000101F03F044FEA1140F3
:10484000D870C1F304225A709C70C1F342311970C0
:104850000AD101F0F1FED870587801F0EDFE5870E1
:10486000987801F0E9FE9870002010BD3FFFFF002E
:1048700030B50B460168144D4024002A896A5960FE
:1048800001680969C1F30E0199600068016801EAD5
:10489000050104EA1142C1F305401870C1F3062472
:1048A0005C7001F07F019970DA700AD101F0C4FEEA
:1048B0001870587801F0C0FE5870987801F0BCFE6E
:1048C0009870002030BD00007F7F7F002DE9F0410F
:1048D000040003D094F8210018B108E00120BDE8DD
:1048E000F081002084F82000204600F047F80220E4
:1048F00084F82100CA21226853205162216848624D
:10490000204601F0ADFE002820684FF0FF0104D0E2
:104910000422416284F82120E0E7174D01238268D8
:104920002A408260D4E90006A769256982683D4370
:1049300032432A4382602268E0681061206822893D
:10494000056945EA024202612068C26822F08002DD
:10495000C2602068C26C22F00302C26420686569EC
:10496000E269C66C2A433243C2642068416284F81B
:1049700021300020B3E70000BFFF8FFF124800B5D1
:10498000C3B0016841F480310160006800F48030F8
:104990004290FEF7B3FA04202F90002138910122B3
:1049A00031922FA8FFF756FC4FF48000009081133E
:1049B00068462C91FEF7B8FD03488438016841F43D
:1049C0000041016043B000BDF44402582DE9F047B6
:1049D000044690F820000B46012828D04FF001092A
:1049E00084F82090022184F82110587812B301F045
:1049F00023FE987801F020FE59789878DA781B78B1
:104A0000090240EA024541EA433005432268CA21CF
:104A10005320516221684862204601F021FE4FF088
:104A200000064FF0FF074FF0040858BB19E00220C2
:104A3000BDE8F087C10603D500F0EF000A305870DA
:104A4000D87801F002FE0204587801F0FEFD42EA37
:104A50000022987801F0F9FD1978024342EA4135C5
:104A6000D4E721680F4805404D602068C16821F0F7
:104A70008001C1602068806880060BD4204600F069
:104A800091F838B121684F6284F82180012084F8C0
:104A90002060CDE721684F6284F82190002084F8DF
:104AA0002060C5E73FFFFF002DE9F047044690F87E
:104AB00020000D46012813D04FF0010A84F820A0F1
:104AC000022184F8211020684FF0000680684FEA28
:104AD000406042B100281ADA287801F0ADFD17E0F5
:104AE0000220BDE8F087002800DBEE70287801F096
:104AF000ACFD0204687801F0A8FD42EA0022A87823
:104B000001F0A3FDE978024342EA01470AE0EE70B2
:104B100069782A78A878EB78090240EA024741EAE6
:104B2000034007432268CA2153205162216848622A
:104B3000204601F095FD4FF0FF084FF00409E0B961
:104B40002168174807400F602068816821F48021A0
:104B500081602068D5E9031283681143194381609D
:104B60002068C16821F08001C160206880688006EB
:104B70000CD4204600F016F840B12268C2F8248018
:104B800084F82190012084F82060AAE72268C2F806
:104B9000248084F821A0002084F82060A1E7000090
:104BA0007F7F7F0070B504460068C16821F0A001D6
:104BB000C160FDF7DDFE4FF47A76054607E000BFE1
:104BC000FDF7D6FE401BB04201D9032070BD20681E
:104BD000C0688006F4D5002070BD000070B50400E8
:104BE0000D4603D094F82C0010B107E0012070BDF1
:104BF000002084F82D00204600F018F8022084F8E8
:104C00002C002068211DFDF747F9D4E90002294650
:104C1000FDF788F904480121026842F00042026071
:104C200084F82C10002070BD00400052384810B5A8
:104C300086B0016841F002010160006800F00200E6
:104C4000059033482038016841F4805101600068C4
:104C500000F4805005902E481438016841F004019A
:104C60000160016801F004010591016841F008014B
:104C70000160016801F008010591016841F010012F
:104C80000160016801F010010591016841F0200107
:104C90000160016801F020010591016841F04001C7
:104CA00001600068002100F0400005904FF0806036
:104CB00000F064F800214FF0006000F05FF80D2074
:104CC0000221012203230C248DE81F0011486946AC
:104CD000FDF746FD4CF2037000900F486946FDF762
:104CE0003FFD4FF6837000900C486946FDF738FD94
:104CF0004FF63F0000900A486946FDF731FD48F243
:104D00003710009007486946FDF72AFD06B010BD30
:104D1000F444025800080258000C025800100258CF
:104D2000001402580018025810B5044690F82C00E0
:104D3000022809D0022084F82C002068FDF7DBF857
:104D4000012084F82C00002010BD000070B504463E
:104D500090F82C000D4602280DD0022084F82C007B
:104D60002068FDF7CEF82868022805D05FF0010022
:104D700084F82C00002070BD0520F9E7024A136872
:104D800083430B43136070470404005804284FF01A
:104D9000E020016903D021F004010161704741F076
:104DA0000401FAE7401EB0F1807F10B501D3012065
:104DB00010BD4FF0E02460610F21601704F0F6FD94
:104DC0000020A0610721216110BD7047704710B518
:104DD000040003D094F83D0010B107E0012010BD9D
:104DE000002084F83C00204600F00CF8022084F8F3
:104DF0003D002068211D01F0E1FD012084F83D0007
:104E0000002010BD08B500680B49884212D10B483C
:104E1000016841F00201016000680022012100F0F8
:104E2000020000901D20FEF72FF8BDE808401D206D
:104E3000FEF71DB808BD000000040040E844025819
:104E40000168CA6842F00102CA600068018841F046
:104E50000101018000207047704770B5044600686A
:104E600000250169C943890715D4C168C943890769
:104E700011D4EA1E02610121217720688069800730
:104E8000204602D0FFF7E8FF04E000F0A5F8204636
:104E900000F0A3F8257720680169C943490717D4B2
:104EA000C168C943490713D402216FF004020261AB
:104EB00021772068806910F4407F204602D0FFF7F8
:104EC000CBFF04E000F088F8204600F086F8257754
:104ED00020680169C943090716D4C168C943090795
:104EE00012D404216FF00802026121772068C069A2
:104EF0008007204602D0FFF7AFFF04E000F06CF817
:104F0000204600F06AF8257720680169C943C90680
:104F100017D4C168C943C90613D408216FF0100221
:104F2000026121772068C06910F4407F204602D0DA
:104F3000FFF792FF04E000F04FF8204600F04DF834
:104F4000257720680169C943C90708D1C168C943E9
:104F5000C90704D1891E0161204600F03FF820688E
:104F60006FF080050169C943090607D4C168C943C8
:104F7000090603D405612046FFF727FF2068016971
:104F8000C943C90507D4C168C943090603D40561EB
:104F90002046FFF71AFF20680169C943490609D472
:104FA000C168C943490605D46FF04001016120463C
:104FB00000F024F820680169C94389060BD4C16850
:104FC000C943890607D46FF0200101612046BDE87E
:104FD0007040FFF7FBBE70BD7047704705498842BF
:104FE00007D1054801684268491C016042F100028E
:104FF000426070474C4A0324B8020024704770474F
:1050000010B5044690F8790021280ED120688168F7
:1050100009060AD5816821F080018160206F08B1FE
:10502000FCF7C6FF204601F03DFE94F87A002228E6
:105030000ED12068816849060AD5816821F04001B7
:105040008160606F08B1FCF7B3FF204601F01CFEE1
:10505000002010BD7047000070B502680446D0699A
:105060001368916810F00F0F64D0594D03F49076D7
:105070000D40354376D0C50707D0DD0505D50125A0
:105080001562E26F42F00102E267820708D5CA07A3
:1050900006D0256802222A62E26F42F00402E2672B
:1050A000420708D5CA0706D0256804222A62E26FA3
:1050B00042F00202E26702070ED503F0200201F07F
:1050C00080552A4352EAC17206D0256808222A6216
:1050D000E26F42F00802E267E26F002A3AD08006EF
:1050E00008D503F0200001F08051084302D020468B
:1050F00001F0E1FDE06F000703D4206880684006FE
:105100002AD5204601F0C0FD2068816849061ED5D9
:10511000816821F040018160606FC0B12D49016557
:10512000606FFCF7B7FF002814D0606F016DBDE819
:1051300070400847850615D503F0200501F080561C
:1051400035430FD02046BDE8704001F0B4BD204685
:10515000FFF780FF70BD05E02046FFF77BFF0020D2
:10516000E067F7E7C6024FF020050CD54E020AD5DE
:10517000E803106284F8795084F87A502046BDE83C
:105180007040FFF73CBF06060AD503F0800601F425
:1051900000010E4304D02046BDE8704002F03AB84A
:1051A00041060BD5590609D51168204621F040016A
:1051B000116084F8795000F0D5F8CBE70002C9D52A
:1051C0005800C7D5106820F080401060C2E700008A
:1051D00001000010A56B000810B5040003D094F87E
:1051E000790010B107E0012010BD002084F878009C
:1051F000204600F026F8242084F879002068016811
:1052000021F001010160204601F090FD0128EBD062
:10521000606B10B1204601F033FC2068416821F436
:10522000904141602068816821F02A0181602068F6
:10523000016841F0010101602046BDE8104001F025
:1052400083BC704770B5044690F87A00202839D1A5
:10525000A9B3A2B394F87800012833D0012384F8CD
:10526000783061660025A4F868202220E56784F87C
:105270007A001346616F1448C863616F134808646D
:10528000616F1348C864606F0565666E2168606F62
:1052900032462431FDF7E2F984F87850206801683D
:1052A00041F4807101602068816841F001018160F2
:1052B0002068816841F040018160002070BDFFE7F7
:1052C0000120FBE70220F9E70B6C0008476C00089F
:1052D000B96B00087047704770B5044690F87900C4
:1052E000202836D191B38AB394F87800012830D0C1
:1052F000012384F87830E1650025A4F8602021209E
:10530000A4F86220E56784F879001346216F1248FB
:10531000C863216F11480864216F1148C864206F69
:1053200005652668E16D206F5C3406F12802FDF703
:1053300095F954F85C0C40210162257754F85C0C17
:10534000816841F080018160002070BDFFE701208D
:10535000FBE70220F9E70000516C00087F6C0008B1
:10536000B96B0008704770472DE9F05F8846064624
:1053700010274FF0040B01EB88004FF0050A06EBF5
:10538000C005306800EB4814D4F80805400708D57C
:10539000C4F808B5D4F80C0540F00200C4F80C05B8
:1053A00033E0D4F80805800603D52020C4F80805AA
:1053B0002BE0D4F808054FF00809000710D5D4F801
:1053C0000C2542F00202C4F80C2585F85DA0C4F853
:1053D0000875C4F808954146306803F0E2FD14E012
:1053E000D4F80805400510D5D4F80C0540F00200AB
:1053F000C4F80C05306803F0D4FD4FF48061C4F8A4
:10540000087585F85D90C4F80815D4F8080580057E
:105410000ED5D4F80C0540F00200C4F80C05306835
:1054200004F5A164414603F0BCFD4FF400708CE02C
:10543000D4F8080500210122C00737D0306930B107
:10544000D4F81035A86CC3F31203C01AE86485F8C9
:105450005D20A965C4F8082595F83F0020B1022811
:1054600002D003280ED019E0D4F80C0540F0020059
:10547000C4F80C05306804F5A164414603F091FDC1
:1054800027600BE0D4F8000540F00050C4F8000598
:105490004146304685F85C20FDF7CCFA95F850007F
:1054A00080F0010085F85000BDE8F09FD4F80805B1
:1054B000800733D5D4F80C05022320F00200C4F88D
:1054C0000C0595F85D00012806D0052807D00628B0
:1054D00008D0082806D018E085F85C2015E085F88B
:1054E0005CA012E0A86D421CAA65032803D9A96537
:1054F00085F85CB001E085F85C30D4F8000520F058
:10550000804040F00040C4F80005C4F8083541462A
:1055100095F85C203046FDF78DFAC5E7D4F808050C
:10552000000614D5D4F80C05062140F00200C4F89A
:105530000C05A86D04F5A164401CA86585F85D10F4
:105540004146306803F02DFD80202060ACE7D4F8A0
:105550000805C006A8D595F83F00032803D068B118
:1055600002280BD012E0D4F80C0540F00200C4F879
:105570000C053068414603F014FD07E0D4F800053F
:1055800020F0804040F00040C4F80005032085F87A
:105590005D00C4F8087587E72DE9F04702684FF011
:1055A000040C02EB4114D4F80825520709D5C4F8BD
:1055B00008C5D4F80C0540F00200C4F80C05BDE89D
:1055C000F087D4F8082501EB8103022600EBC30520
:1055D000920614D52022C4F8082595F83D20012A0A
:1055E000EDD185F85DC0D4F80C2542F00202C4F874
:1055F0000C25006803F0D5FC85F85C60DFE7D4F883
:105600000825002352060FD585F85DC0AB65D4F898
:105610000C2542F00202C4F80C25006804F5A164D0
:1056200003F0BFFC402010E0D4F8082592050ED509
:10563000D4F80C2542F00202C4F80C25006804F5E9
:10564000A16403F0AEFC4FF400702060B7E7D4F81B
:1056500008254FF0010AD20710D0AB65D4F80C250D
:1056600042F00202C4F80C25006804F5A16403F0BE
:1056700098FCC4F800A085F85DA0A0E7D4F8082540
:1056800008274FF0050912070DD5C4F80875D4F89E
:105690000C2542F00202C4F80C25006803F081FCDE
:1056A00085F85D908BE7D4F808254FF01008D206F6
:1056B0000ED5AB65D4F80C2542F00202C4F80C25D7
:1056C000006804F5A16403F06CFC0321404610E07F
:1056D000D4F8082512060FD5D4F80C2542F00202A2
:1056E000C4F80C25006804F5A16403F05AFC0621F7
:1056F000802085F85D10A8E7D4F80825520512D55A
:10570000D4F80C2542F00202C4F80C25006804F518
:10571000A16403F046FC4FF48061C4F8008021606E
:1057200085F85D704BE7D4F8082592078ED5D4F83C
:105730000C2522F00202C4F80C2595F85D20012A00
:105740000AD0032A15D0042A16D0052A19D0062A11
:105750001AD0082A18D02AE095F83F3085F85CA0C6
:10576000022B24D195F8512082F0010285F85120B6
:105770001DE085F85C601AE085F85C6085F83D30D6
:1057800015E085F85C9012E0AA6D571CAF65032AFE
:1057900003D9AB6585F85CC001E085F85C60D4F89E
:1057A000002522F0804242F00042C4F80025C4F8EF
:1057B000086595F85C20FDF73DF900E77CB50568C4
:1057C0000446D5F840040190D5F8400420F02E009E
:1057D0000090019880070DD50198C00706D0A869F0
:1057E00020F00051A9612046FDF7C8F8009840F06C
:1057F000020000900198000727D5009840F00800AB
:105800000090019840072AD5A069022803D0E068DB
:1058100003280CD00FE00198C0F341400228206813
:1058200003D0012103F020FE05E00221FAE74EF645
:105830006020C5F804042046FDF7A0F8E06820B910
:105840002068816941F000518161019880060098CB
:1058500002D540F020000090C5F840047CBDD5F88A
:10586000400420F02E00C5F84004E9E72DE9F0419E
:1058700002460068016A064601F00F07C1F3434380
:10588000022BC1F30A1426D1002C24D007EB870188
:1058900002EBC105696C00291DD0224603F004FE0D
:1058A0006A6C06EB47100D4922446A64EA6C224494
:1058B000EA64D0F810250A420DD0D0F8001521F086
:1058C000804141F00041C0F8001595F8500080F08B
:1058D000010085F85000BDE8F08100000000F81FCD
:1058E000FEE70109092900F00F0001D8303104E07A
:1058F000A1F10A02052A00D83731092801D8303031
:1059000004E0A0F10A02052A00D8373040EA01205D
:105910007047000010B5124C002210212046FDF700
:1059200022F8206820F440602060206840F4806005
:105930002060002220462021FDF715F8022004F007
:105940005FFF012220461021FDF70DF8022004F030
:1059500057FF00222046BDE810401021FDF703B894
:10596000001C0258114810B586B0016841F0800152
:105970000160006803220E4C302100F08000059089
:105980000120CDE90202CDE9001069462046FCF76E
:10599000E7FE012220462021FCF7E5FF01222046F8
:1059A0001021FCF7E0FF06B010BD0000E0440258F3
:1059B000001C025810B5124C002210212046FCF7A2
:1059C000D2FF206820F440602060206840F48060AE
:1059D0002060012220462021FCF7C5FF022004F0B0
:1059E0000FFF012220461021FCF7BDFF022004F02A
:1059F00007FF00222046BDE810401021FCF7B3BF8E
:105A0000001C02582DE9F041174C0746002520687C
:105A10002E4620F440602060206820600022102183
:105A20002046FCF7A0FF022004F0EAFE01222046F7
:105A30001021FCF798FF68062021050E2046FCF790
:105A400089FF08B16D1CEDB2012004F0D9FE761C6F
:105A5000F6B2082EE2D327B1FFF75CFF2846BDE877
:105A6000F081FFF7A7FFF9E7001C025870B5194E47
:105A700005463046316821F440613160316841F4B7
:105A80008061316000221021FCF76DFF00242806A0
:105A900001D5012200E0002230462021FCF763FFFF
:105AA0006806050E022004F0ABFE012230461021EC
:105AB000FCF759FF022004F0A3FE0022304610211B
:105AC000FCF751FF022004F09BFE641CE4B2082C9A
:105AD000DDD370BD001C025810B5124C206820F4B4
